S01B000070726F6A6563745F30315F70726163746963652E73726563A8
S11300000C9434000C9487000C94A7000C944600C4
S11300100C9446000C9446000C9446000C94460044
S11300200C9446000C9446000C9446000C94460034
S11300300C9446000C9446000C9446000C94460024
S11300400C9446000C9446000C9446000C94460014
S11300500C9446000C9446000C9446000C94460004
S11300600C9446000C94460011241FBECFEFD8E038
S1130070DEBFCDBF21E0A0E0B1E001C01D92A230FF
S1130080B207E1F70E9452000C94C3000C940000E4
S113009084B1826084B983E88093800089E080938E
S11300A08100089584B18E7F84B985B1816085B95A
S11300B08FEF87B988B18E7F88B9109201011092B1
S11300C000010E9448008AB18B7F8AB98BB1846099
S11300D08BB98AB1877F8AB98BB188608BB98AE082
S11300E08093690083E08DBB7894809100019091A6
S11300F0010190938900809388002FEF81EE94E0B2
S1130100215080409040E1F700C00000EECF1F92E4
S11301100F920FB60F9211248F939F938091000139
S1130120909101014E9718F088B18E7F88B9809123
S11301300001909101014E9690930101809300017A
S11301409F918F910F900FBE0F901F9018951F9243
S11301500F920FB60F9211248F939F9380910001F9
S1130160909101014E9790930101809300014E9765
S113017018F488B1816088B99F918F910F900FBE58
S10D01800F901F901895F894FFCF1C
S9030000FC
