:100000000C9434000C9497000C94F2000C9446006D
:100010000C9446000C9446000C9446000C94460048
:100020000C9446000C9446000C9446000C94460038
:100030000C9446000C9446000C9446000C94460028
:100040000C9446000C9446000C9446000C94460018
:100050000C9446000C9446000C9446000C94460008
:100060000C9446000C94460011241FBECFEFD8E03C
:10007000DEBFCDBF21E0A0E0B1E001C01D92A23003
:10008000B207E1F70E9452000C9422010C94000088
:1000900084B1866084B983EA8093800089E080938C
:1000A0008100089584B18E7F84B985B1816085B95E
:1000B0008FEF87B988B18E7F88B988B18D7F88B975
:1000C00088B18B7F88B910920101109200010E94C3
:1000D00048008AB18B7F8AB98BB184608BB98AB1B1
:1000E000877F8AB98BB188608BB98AE08093690079
:1000F00083E08DBB789480910001909101019093F1
:100100008900809388008091000190910101880FFF
:10011000991F90938B0080938A002FEF81EE94E0DB
:10012000215080409040E1F700C00000E4CF1F92D2
:100130000F920FB60F9211242F938F939F9380915C
:1001400000019091010199239CF088B18E7F88B9BC
:1001500088B18D7F88B988B18B7F88B98091000183
:10016000909101014E9690930101809300011AC075
:1001700099239CF488B1816088B988B1826088B97C
:1001800088B1846088B980910001909101014E96F8
:10019000909301018093000105C04E969093010158
:1001A0008093000180910001909101018C3122E047
:1001B000920721F488B1846088B90CC08C3F9340C9
:1001C0004CF088B1846088B98CEF93E09093010182
:1001D000809300019F918F912F910F900FBE0F90F0
:1001E0001F9018951F920F920FB60F9211242F9304
:1001F0008F939F9380910001909101014E9790936E
:100200000101809300018E31910574F488B1816001
:1002100088B988B1826088B988B1846088B9109241
:1002200001011092000106C08D3F93401CF488B17B
:100230008B7F88B99F918F912F910F900FBE0F9058
:080240001F901895F894FFCF00
:00000001FF
